S026000044494F486172647761726550726F78795061747465726E546573744170702E7372656333
S11300000C942A000C943C000C943C000C943C008E
S11300100C943C000C943C000C943C000C943C006C
S11300200C943C000C943C000C943C000C943C005C
S11300300C943C000C943C000C943C000C943C004C
S11300400C943C000C943C000C943C000C943C003C
S11300500C943C0011241FBECFE5D8E0DEBFCDBF19
S113006020E0A0E6B0E001C01D92A436B207E1F79B
S11300700E943E000C94FB010C940000CF93DF938C
S113008000D0CDB7DEB76BE370E082E690E00E946B
S1130090540168E370E080E690E00E94540120E09F
S11300A041E060E082E690E00E94620121E040E0ED
S11300B061E082E690E00E94620120E041E060E0BD
S11300C080E690E00E94620121E040E061E080E689
S11300D090E00E946201AE014F5F5F4F61E082E6F3
S11300E090E00E9489018981811107C041E060E0AC
S11300F082E690E00E94BE0106C040E060E082E635
S113010090E00E94BE01AE014E5F5F4F61E080E669
S113011090E00E9489018A81811107C041E060E07A
S113012080E690E00E94BE01D6CF40E060E080E629
S113013090E00E94BE01CFCFCF93DF93EC01FB018F
S1130140A881B981109709F456C0309709F455C0B5
S11301508481811133C08E91608141E050E0062E8C
S113016002C0440F551F0A94E2F79181292F30E011
S113017002C0220F331F6A95E2F740954823242BCF
S11301802C93818181113BC0A881B9814C9150810C
S113019021E030E0052E02C0220F331F0A94E2F75B
S11301A09381892F90E002C0880F991F5A95E2F736
S11301B020952423822B8C9380E026C0813009F57E
S11301C08181813001F54C91508121E030E0052E90
S11301D002C0220F331F0A94E2F79281892F90E024
S11301E002C0880F991F5A95E2F720952423822B89
S11301F08C9380E009C081E007C081E005C080E005
S113020003C081E001C081E0DF91CF910895CF93D5
S1130210DF93FB01DC012D913C9121153105E1F1C6
S11302203097E1F1D90111972C91408130E0042EEF
S113023002C0359527950A94E2F721702183213075
S113024071F4EC01A881B9818C9190E002C095957C
S113025087954A95E2F78170828380E022C021115C
S11302601FC0EC01A881B9812C9130E0042E02C09A
S1130270359527950A94E2F721702383A881B981E3
S113028012978C9190E002C0959587954A95E2F774
S11302908170828380E005C081E003C081E001C0F9
S11302A081E0DF91CF9108956115710539F00097D0
S11302B039F0FC017183608380E0089581E0089542
S11302C081E00895CF93DF9300D000D01F92CDB783
S11302D0DEB7009789F0DC01ED91FC91EF2B71F012
S11302E0683070F469834A832C831D82BE016F5F7A
S11302F07F4F0E949C0005C081E003C081E001C0E3
S113030081E00F900F900F900F900F90DF91CF919D
S113031008950F931F93CF93DF9300D000D01F92C3
S1130320CDB7DEB70097C9F0FC0120813181232BC2
S1130330B1F041155105A9F06830A8F48A01698328
S1130340BE016F5F7F4F0E940701811104C09B8132
S1130350F801908309C081E007C081E005C081E015
S113036003C081E001C081E00F900F900F900F90C7
S11303700F90DF91CF911F910F910895FF920F93EA
S11303801F93CF93DF9300D000D01F92CDB7DEB779
S1130390009709F1FC0120813181232BF1F06830B1
S11303A0F0F4F42E8C016983BE016F5F7F4F0E94CD
S11303B0070181110CC08A81813059F4FB828D833D
S11303C0BE016F5F7F4FC8010E949C0009C081E09D
S11303D007C081E005C081E003C081E001C081E085
S11303E00F900F900F900F900F90DF91CF911F916E
S10D03F00F91FF900895F894FFCFD9
S9030000FC
