S02000004465626F756E63696E675061747465726E546573744170702E7372656367
S11300000C9431000C944E000C944E000C944E0051
S11300100C944E000C944E000C944E000C944E0024
S11300200C944E000C944E000C944E000C944E0014
S11300300C944E000C944E000C944E000C944E0004
S11300400C944E000C944E000C944E000C944E00F4
S11300500C944E006D02780283028E029902A4026F
S1130060AF0211241FBECFE5D8E0DEBFCDBF10E044
S1130070A0E6B0E0E6ECFBE002C005900D92AC36E1
S1130080B107D9F720E0ACE6B0E001C01D92A13879
S1130090B207E1F70E942C010C94E1050C940000D6
S11300A0CF93DF93009709F445C0EC018885813034
S11300B079F018F0823021F13FC0BE016E5F7F4FAE
S11300C088810E940201811139C081E0888739C08A
S11300D060E570E08B810E940B048B3F59F44C81E6
S11300E05D816E817F8120E530E08B810E947A03FF
S11300F081E027C0811124C082E0888781E021C08B
S1130100BE016F5F7F4F88810E94020181110BC085
S11301109A818981981309C0E985FA85309739F065
S1130120099580E005C081E003C081E001C080E062
S1130130188607C081E005C081E003C081E001C0EA
S113014081E0DF91CF910895FC01892B79F081E062
S113015080831182128283E0838314821582168243
S1130160178210861286118680E0089581E0089532
S1130170009731F0611106C0FC01608380E00895AE
S113018081E0089581E00895009751F0633050F4C0
S1130190FC016383248335834683578380E0089579
S11301A081E0089581E00895009741F0611571059B
S11301B039F0FC017287618780E0089581E0089539
S11301C081E008951F93CF93DF93811114C08111AF
S11301D005C0E0E6F0E0C081D181128140E06D2FDE
S11301E08C2F0E945101113041F46D2F8C2F0E94ED
S11301F0890180E003C08EEF01C080E0DF91CF91E0
S11302001F910895811111C06115710581F081114B
S113021004C0E0E6F0E090812181AB01622F892FD8
S11302200E94AE01811105C008958EEF08958FEFED
S1130230089581E0089580916D00811108C0909126
S11302407700891721F064E081E00E94DE0180914B
S11302506D0080937700089580E00E94E20041E001
S113026064E081E00E9451018CE690E00E94A400C9
S113027060E08CE690E00E94B80024E130E040E0C9
S113028050E062E08CE690E00E94C4006BE171E013
S11302908CE690E00E94D4008CE690E00E9450002E
S11302A0FBCF683080F5813079F028F0823031F06E
S11302B0833039F02AC0EAE3F0E008C0E4E3F0E078
S11302C005C0E1E3F0E002C0E7E3F0E0413061F4AF
S11302D0208181E090E002C0880F991F6A95E2F7BF
S11302E0822B808380E00895411111C0208181E038
S11302F090E002C0880F991F6A95E2F780958223E7
S1130300808380E0089582E0089583E0089581E089
S113031008956830F8F4813079F028F0823031F0B3
S1130320833039F019C0EBE3F0E008C0E5E3F0E016
S113033005C0E2E3F0E002C0E8E3F0E0208181E000
S113034090E002C0880F991F6A95E2F7822B8083A0
S113035080E0089582E0089583E0089541155105F1
S113036039F1683038F5813079F028F0823031F095
S1130370833039F021C0E9E3F0E008C0E3E3F0E0C2
S113038005C0E0E3F0E002C0E6E3F0E0808190E045
S113039002C0959587956A95E2F780FF05C081E0D4
S11303A0FA01808380E00895FA01108280E00895C4
S11303B085E0089582E0089583E008956830F8F4B4
S11303C0813079F028F0823031F0833039F019C06F
S11303D0EBE3F0E008C0E5E3F0E005C0E2E3F0E0C1
S11303E002C0E8E3F0E0208181E090E002C0880FE1
S11303F0991F6A95E2F78227808380E0089582E05E
S1130400089583E00895823008F04EC090E0FC0126
S1130410EE0FFF1F8E0F9F1FFC01ED59FF4F8281CE
S1130420833009F128F4813041F0823089F0A2C090
S1130430843021F1853069F19DC080E090E0A0E82E
S1130440BDE3FB0180839183A283B38380E008959D
S113045080E090E0A0E0BFE3FB0180839183A2836E
S1130460B38380E0089580E090E0A0E8B0E4FB016D
S113047080839183A283B38380E0089580E090E039
S1130480A0E8B1E4FB0180839183A283B38380E07D
S1130490089580E090E0A0E8B2E4FB0180839183BA
S11304A0A283B38380E00895823009F065C090E0B0
S11304B0FC01EE0FFF1F8E0F9F1FFC01ED59FF4F34
S11304C0E2818E2F90E0FC013197E730F10508F0CE
S11304D055C0E65DFF4F0C94C10580E090E0A0E8B4
S11304E0BDE3FB0180839183A283B38380E00895FD
S11304F080E090E0A0E0BFE3FB0180839183A283CE
S1130500B38380E0089580E090E0A0E0B0E4FB01D4
S113051080839183A283B38380E0089580E090E098
S1130520A0E8B0E4FB0180839183A283B38380E0DD
S1130530089580E090E0A0E0B1E4FB018083918322
S1130540A283B38380E0089580E090E0A0E8B1E462
S1130550FB0180839183A283B38380E0089580E0CC
S113056090E0A0E8B2E4FB0180839183A283B3838B
S113057080E008958CEF089580E008958CEF08954D
S1130580813071F018F0823031F01EC0E2E5F0E005
S1130590A3E5B0E009C0E4E4F0E0A5E4B0E004C001
S11305A0ECE4F0E0AEE4B0E060832C9190E0FC0178
S11305B0EE0FFF1F8E0F9F1FFC01ED59FF4F82812D
S11305C0822B8C9380E008958EEF08956115710558
S11305D009F47AC0813041F120F0823009F452C02C
S11305E075C090E0FC01EE0FFF1F8E0F9F1FFC01F2
S11305F0ED59FF4F8081811109C008B600FE68C023
S1130600FB01108298B7916098BF0895883009F073
S113061061C008B601FE60C081E0FB01808388B739
S1130620826088BF80E0089590E0FC01EE0FFF1F18
S11306308E0F9F1FFC01ED59FF4F8081811109C06E
S113064008B602FE4BC0FB01108298B7946098BFB5
S11306500895883009F044C098B7892F807194FFB9
S113066008C081E0FB01808388B7806188BF80E097
S1130670089593FF37C091E0FB01908398B7986089
S113068098BF089590E0FC01EE0FFF1F8E0F9F1F8F
S1130690FC01ED59FF4F8081811109C008B606FEA7
S11306A023C0FB01108298B7906498BF08958830E6
S11306B0E9F408B607FE1CC081E0FB01808388B71B
S11306C0806888BF80E008958FEF08958EEF0895C5
S11306D08DEF089580E008958DEF08958DEF0895CE
S11306E080E008958DEF08958DEF089580E00895DA
S11306F08DEF08958F929F92AF92BF92DF92EF9207
S1130700FF920F931F93CF93DF9300D000D0CDB708
S1130710DEB7182F042FD52EE62EF72E833008F0DF
S113072065C02115310509F463C030937900209325
S1130730780080917A0081115DC0BE016F5F7F4FA8
S1130740812F0E9403028C3F09F44EC089809A8055
S1130750AB80BC8020E030E0A901C501B4010E9457
S11307606904882381F0602F7D2D8E2D9F2D0E949A
S11307700F05A50194010E946E040E94E004062F57
S1130780D72EE82EF92EA8EEB3E0202F3D2D4E2DC6
S11307905F2D0E94C705BB27A92F982F872F809311
S11307A07D0090937E00A0937F00B093800028EE9C
S11307B0029F002D112400937B00892B8A2B8B2B05
S11307C049F481E080937C00602F70E0812F0E94C7
S11307D0C00205C06FEF70E0812F0E94C00281E06B
S11307E080937A008DEF07C08CEF05C08EEF03C0B5
S11307F081E001C081E00F900F900F900F90DF9186
S1130800CF911F910F91FF90EF90DF90BF90AF9029
S11308109F908F9008951F93CF93DF931F92CDB72E
S1130820DEB790917A00992309F449C020917800A9
S1130830309179002617370709F043C0913009F049
S113084042C0182FBE016F5F7F4F0E94E6028111E4
S113085035C080917C00813041F410927A0010926E
S11308607C0010927B0080E02FC080917D009091ED
S11308707E00A0917F00B09180000197A109B10989
S113088080937D0090937E00A0937F00B0938000BE
S1130890892B8A2B8B2B59F481E080937C00609107
S11308A07B0070E0812F0E94C0028DEF0DC06FEFBE
S11308B070E0812F0E94C0028DEF06C005C08BEF4F
S11308C003C081E001C081E00F90DF91CF911F91BF
S11308D008950E944C0508F481E008950E94820462
S11308E00C9487050E94800558F00E94790540F019
S11308F029F45F3F29F00C94700551110C94BB0549
S11309000C9476050E94980568F39923B1F3552356
S113091091F3951B550BBB27AA276217730784070E
S113092038F09F5F5F4F220F331F441FAA1FA9F3A4
S113093035D00E2E3AF0E0E832D091505040E69592
S1130940001CCAF72BD0FE2F29D0660F771F881FF3
S1130950BB1F261737074807AB07B0E809F0BB0BE6
S1130960802DBF01FF2793585F4F3AF09E3F5105FA
S113097078F00C9470050C94BB055F3FE4F3983E4B
S1130980D4F3869577956795B795F7959F5FC9F7E3
S1130990880F911D9695879597F90895E1E0660F64
S11309A0771F881FBB1F621773078407BA0720F0DD
S11309B0621B730B840BBA0BEE1F88F7E095089546
S11309C00E94A00588F09F5798F0B92F9927B75136
S11309D0B0F0E1F0660F771F881F991F1AF0BA95DF
S11309E0C9F714C0B13091F00E94BA05B1E008957E
S11309F00C94BA05672F782F8827B85F39F0B93F70
S1130A00CCF3869577956795B395D9F73EF4909591
S1130A108095709561957F4F8F4F9F4F0895E8940F
S1130A2009C097FB3EF490958095709561957F4F32
S1130A308F4F9F4F9923A9F0F92F96E9BB279395E0
S1130A40F695879577956795B795F111F8CFFAF4F0
S1130A50BB0F11F460FF1BC06F5F7F4F8F4F9F4F21
S1130A6016C0882311F096E911C0772321F09EE87F
S1130A70872F762F05C0662371F096E8862F70E0E5
S1130A8060E02AF09A95660F771F881FDAF7880FBF
S1130A909695879597F90895990F0008550FAA0B15
S1130AA0E0E8FEEF16161706E807F907C0F012167D
S1130AB01306E407F50798F0621B730B840B950B80
S1130AC039F40A2661F0232B242B252B21F40895D5
S1130AD00A2609F4A140A6958FEF811D811D089572
S1130AE097F99F6780E870E060E008959FEF80ECDD
S1130AF0089500240A941616170618060906089580
S1130B0000240A9412161306140605060895092EE5
S1130B100394000C11F4882352F0BB0F40F4BF2B54
S1130B2011F460FF04C06F5F7F4F8F4F9F4F089594
S1130B3057FD9058440F551F59F05F3F71F047958A
S1130B40880F97FB991F61F09F3F79F0879508956F
S1130B50121613061406551FF2CF4695F1DF08C08E
S1130B60161617061806991FF1CF869571056105AB
S1130B7008940895E894BB2766277727CB0197F953
S1130B800895EE0FFF1F0590F491E02D09940E9443
S1130B90D205A59F900DB49F900DA49F800D911D2B
S1130BA011240895A29FB001B39FC001A39F700DAB
S1130BB0811D1124911DB29F700D811D1124911D61
S1090BC00895F894FFCF34
S10F0BC60102010000000000000000011A
S9030000FC
